:020000040800F2
:10000000A00500209D0100082D12000829120008FB
:100010002B12000867020008011D00080000000004
:100020000000000000000000000000003D14000877
:10003000910B0008000000001D1300084114000887
:10004000B7010008B7010008B7010008B7010008B0
:10005000B7010008B7010008B7010008B7010008A0
:10006000B7010008B7010008B7010008B701000890
:10007000B7010008B7010008B7010008B701000880
:100080001D040008B7010008B7010008B701000807
:10009000B7010008B7010008B7010008B701000860
:1000A000B7010008B7010008B7010008B701000850
:1000B000CD150008F115000819160008B701000851
:1000C000B7010008B7010008B7010008B701000830
:1000D000B7010008111B0008B7010008B7010008AC
:1000E000B7010008B7010008B7010008B701000810
:1000F000B7010008B7010008B7010008B701000800
:10010000B7010008B701000841160008B701000850
:10011000B7010008B7010008B7010008B7010008DF
:10012000B7010008B7010008B7010008B7010008CF
:10013000B7010008B7010008B7010008B7010008BF
:10014000B7010008B7010008B7010008B7010008AF
:10015000B7010008B7010008B7010008B70100089F
:10016000B7010008B7010008B7010008B70100088F
:10017000B7010008B7010008B7010008B70100087F
:10018000B7010008B7010008DFF80CD000F02EF826
:1001900000480047B52A0008A0050020064880470F
:1001A00006480047FEE7FEE7FEE7FEE7FEE7FEE75C
:1001B000FEE7FEE7FEE7FEE70D15000889010008EF
:1001C00030B50B46014600202022012409E021FA27
:1001D00002F59D4205D303FA02F5491B04FA02F524
:1001E0002844151EA2F10102F1DC30BD064C074D7A
:1001F00006E0E06840F0010394E8070098471034F7
:10020000AC42F6D3FFF7C4FFF02F0008103000080F
:1002100070B58C1810F8015B15F0070301D110F8C8
:10022000013B2A1106D110F8012B03E010F8016BF5
:1002300001F8016B5B1EF9D12B0705D40023521E78
:100240000DD401F8013BFAE710F8013BCB1A921CE0
:1002500003E013F8015B01F8015B521EF9D5A142DE
:10026000D8D3002070BDFEE700210B4A4FF40043B5
:10027000012807D0022808D003280AD01160D8032B
:1002800043627047D160054801E091600448036013
:10029000704751600348FAE708010020240C004031
:1002A000240800402404004010B500F073FC00F066
:1002B000E3FC00F03FFD00F09DFD0120FFF7D4FFBF
:1002C0000220FFF7D1FF0320FFF7CEFFBDE810406B
:1002D0000420FFF7C9BF00001CB50121172001F061
:1002E0001FF841F2F000009000208DF80400032177
:1002F0008DF805108DF8060001208DF8070069467D
:100300000C4800F0D3FD4FF20700009069460A4800
:1003100000F0CCFD4FF6807000906946074800F071
:10032000C5FD4EF2300000906946054800F0BEFD64
:100330001CBD00000000024000040240001002400A
:10034000000802401CB50121162000F0E9FF4FF41F
:100350004070009001208DF8040003218DF80510F5
:1003600000218DF806108DF807006946084800F056
:100370009DFD41F20F0000906946064800F096FD91
:100380007F2000906946044800F090FD1CBD0000ED
:100390000004024000080240001002403EB5012166
:1003A000302000F0C9FF194819491A4C0068B0FB09
:1003B000F1F0401EADF800004FF6FF7001900020F4
:1003C000ADF80800ADF802006946204601F0EAFAEF
:1003D000114D6946284601F0E5FA0121204601F059
:1003E00043F90021204601F0B3FA0121204601F033
:1003F00045F90121284601F037F90021284601F08E
:10040000A7FA0121284601F039F93EBDF400002089
:1004100080841E00001000400014004070B5144D90
:10042000144C2946204600F053F800281CD02946D9
:10043000204600F02DF80121204600F03FF80E483C
:100440004178007841EA00210C4801800C49097884
:1004500078290AD0792904D07A2905D10088094958
:1004600001E000880849088070BD00880749FAE764
:100470000088002088600240180100200C00002045
:1004800007000020DE000020E0000020E200002045
:10049000074A904201D2074801E005481038064A51
:1004A0008B0001EA020101D5C1607047816070478D
:1004B00010640240006002407D0F7D0F002901683A
:1004C00002D041F0010101E021F00101016070471B
:1004D0000246094B00209A4201D2084A01E0064A2E
:1004E000103A8B0001D5526800E01268044B1A40A4
:1004F0000A4200D0012070471064024000600240B0
:100500007D0F7D0F0B0607D5436912B143F08003C1
:1005100001E023F080034361802908D0002A0268AB
:1005200001F01E0101D00A4300E08A4302607047D7
:1005300030B50368124ACC6813400A682243D1E9F7
:1005400005452C432243CC6922430C6A22434C6A62
:1005500022438C6A22434C6B22438C6B22431A4306
:100560000260426922F00703D1E90B2422431A43B7
:1005700042610A6942604A6882608968C16030BD30
:100580003F801CF02DE9FF4799462DED020B2DED24
:10059000028BBDF91000FE4C2083A170E281A1897D
:1005A000A183B4F91C200A2192FBF1F2B4F91630B0
:1005B000D21AA263A36B2D220025002B06DD28B1E1
:1005C000A06B00EBD070A2EB600008E0A36B002BE7
:1005D00007DA30B1A06B00EBD07002EB6000E07086
:1005E00000E0E57094F903001E2801DB1E20E07096
:1005F000B4F91C0090FBF1F000EE900AF8EEE00A6E
:1006000030EE801ADFEDE30A31EE601A84ED0F1A46
:10061000B4F91C0090FBF1F001EE100AB8EEC11A1B
:1006200031EE001A71EE200AC4ED100AB4F91C0074
:1006300090FBF1F000EE900AF8EEE00A30EE801A3E
:10064000DFEDD50A31EE201A84ED111AB4F91C0041
:1006500090FBF1F001EE100AB8EEC11A31EE000A7B
:1006600030EE600A84ED120A94ED0F0A9FEDCB8AFA
:1006700020EE080A01F05AFB84ED170A94ED100AE7
:1006800020EE080A01F052FB84ED180A94ED110ADD
:1006900020EE080A01F04AFB84ED190A94ED120AD3
:1006A00020EE080A01F042FB84ED1A0AB4F90A2090
:1006B000A06BB4F90860504300EE100A94ED171ACD
:1006C000DFF8CC82F8EEC00A00EE106A08F16C0880
:1006D000B8EEC00A40EE010ABDEEE00A10EE100AC4
:1006E000C8F80000A06B94ED181A504300EE100AF1
:1006F00008F11C00F8EEC00A00EE106AB8EEC00A5D
:1007000040EE010ABDEEE00A10EE101A0160A16B86
:1007100094ED191A514300EE101A00F11C01F8EE85
:10072000C00A00EE106AB8EEC00A40EE010ABDEE43
:10073000E00A10EE103A0B60A36B94ED1A1A5A43BC
:1007400000EE102A00F1380CF8EEC00A00EE106A34
:10075000B8EEC00A40EE010ABDEEE00A10EE102A23
:10076000CCF80020D8F8102001230AB9C8F81030BE
:10077000D8F80020D8F8107092FBF7F2C8F81420CF
:10078000D8F814200AB9C8F81430D8F81420002A70
:1007900004DAD8F814205242C8F81420D8F80420FB
:1007A000D8F80070BA42D8F80420D8F8147009DDDF
:1007B000D21BC8F80420D8F80420D8F80070BA4238
:1007C00009DD0CE03A44C8F80420D8F80420D8F831
:1007D0000070BA4203DBD8F80020C8F80420D8F82B
:1007E0000420002AD8F8042004DBC8F80820C8F840
:1007F000183004E05242C8F80820C8F81850D8F859
:100800000820D8F80C703A44C8F80820026902B9E8
:1008100003610268076992FBF7F24261426902B91B
:1008200043614269002A02DA4269524242614268E7
:100830000768BA424268476906DDD21B42604268D7
:100840000768BA4206DD07E03A444260426807683A
:10085000BA4201DB026842604268002A426802DB59
:100860008260836102E05242826085618268C7686B
:100870003A4482600A6902B90B610A680F6992FB07
:10088000F7F24A614A6902B94B614A69002A02DA01
:100890004A6952424A614A680F68BA424A684F69D7
:1008A00006DDD21B4A604A680F68BA4206DD07E0DF
:1008B0003A444A604A680F68BA4201DB0A684A60F3
:1008C0004A68002A4A6802DB8A608B6102E0524271
:1008D0008A608D618A68CF683A448A60DCF810705B
:1008E000624607B913611768D2F810C097FBFCF78E
:1008F0005761576907B953615769002F02DA576981
:100900007F4257615768D2F800C067455768D2F8F0
:1009100014C008DDA7EB0C0757605768D2F800C079
:10092000674507DD08E0674457605768D2F800C0A4
:10093000674501DB176857605768002F03DB57686E
:100940009760936103E053685B429360956193689D
:10095000D7683B449360D8F8083000EE103AB8EE00
:10096000C00A84ED130AD8F818800D4B4FF0100C14
:100970009F1EB8F1010F38D0A7F800C0D0F808C00A
:1009800000EE10CAB8EEC00A84ED140A0AE00000B6
:1009900000000020000007430000344235FA8E3C7E
:1009A0001A0C0240D0F818C00820BCF1010F1FD06B
:1009B0003880886800EE100AB8EEC00A84ED150A87
:1009C00089690420012915D03880906800EE100A4A
:1009D000B8EEC00A84ED160A9169022001290BD0F5
:1009E0003880674B67494EB10CE0A3F800C0C5E7FB
:1009F0001880DEE71880E8E71880F2E70D64CD6321
:100A00008D631D60604A9FED610AB9F1010F0AD044
:100A1000D4ED130A10EE900A904270DD84ED130AB3
:100A2000F0EE400A6DE0A56B15F1050F08DDA56B32
:100A3000052D05DA002E74D00864C863886399E038
:100A4000012E6ED1D4ED130A10EE900A904204DD0F
:100A500084ED130AB0EE401A01E094ED131A94F9F4
:100A6000030000EE900AF8EEE00A71EE200AFCEEB8
:100A7000E00A10EE905A0D64D4ED140A10EE905A6C
:100A8000954204DD84ED140AB0EE401A01E094EDC5
:100A9000141A00EE900AF8EEE00A71EE200AFCEE5D
:100AA000E00A10EE905ACD63D4ED150A10EE905A7C
:100AB000954204DD84ED150AB0EE401A01E094ED94
:100AC000151A00EE900AF8EEE00A71EE200AFCEE2C
:100AD000E00A10EE905A8D63D4ED160A10EE901ACB
:100AE000914202DD84ED160A01E094ED160A00EE53
:100AF000900AF8EEE00A30EE200A37E0FFE7D4ED86
:100B0000130AFCEEE00A10EE900A0864D4ED140A11
:100B100010EE900A904205DD84ED140AF0EE400AD2
:100B200002E028E0D4ED140AFCEEE00A10EE900A90
:100B3000C863D4ED150A10EE900A904204DD84EDEE
:100B4000150AF0EE400A01E0D4ED150AFCEEE00AC9
:100B500010EE900A8863D4ED160A10EE900A9042C7
:100B600002DD84ED160A01E094ED160ABCEEC00A1F
:100B700010EE100A1860BDEC028B06B0BDE8F087DD
:100B8000380401400000014000007A4300007A432D
:100B9000704700002DE9F047012188B0084600F0B9
:100BA000CBFB0121032000F0BBFBDFF8C4A0012236
:100BB0000321504600F0CBF9DFF8B89001220F2155
:100BC000484600F0C4F902258DF804504FF00308A0
:100BD0008DF8058000244FF400478DF8064001266B
:100BE00000978DF807606946484600F05FF98DF878
:100BF000045008208DF8058000908DF806408DF88F
:100C000007606946504600F051F9ADF80840601E93
:100C1000ADF81040ADF80A4003906C0702A92046D9
:100C200000F0C0FE0420ADF814000720ADF81C0051
:100C3000ADF81650ADF8186005A9204600F04CFD3F
:100C400002231A460321204600F02DFD0122114601
:100C5000204600F097FD0121204600F00FFD3946A7
:100C6000204600F075FE00F0E2FA08B0BDE8F0871B
:100C70000004024000000240F0B589B001210220CA
:100C800000F05AFB0121022000F04AFB274F02220C
:100C90000421384600F05BF902220521384600F0B5
:100CA00056F93020022500908DF8045003208DF86D
:100CB000050000248DF8064001268DF8076069467E
:100CC000384600F0F3F8ADF80840ADF81040ADF844
:100CD0000A404FF6FF70164C039002A9204600F020
:100CE00061FE0420ADF814000720ADF81C00ADF83B
:100CF0001650ADF8186005A9204600F0EDFC02235F
:100D00001A460321204600F0CEFC00F0A1FA012291
:100D10001146204600F036FD0121204600F0AEFCD1
:100D2000E113204600F014FE09B0F0BD00040240BB
:100D300000040040F0B589B00121042000F0FCFA65
:100D40000121082000F0ECFA284F02220C2138463D
:100D500000F0FDF802220D21384600F0F8F84FF4BB
:100D60004050022500908DF8045003208DF80500B6
:100D700000248DF8064001268DF807606946384644
:100D800000F094F8ADF80840ADF81040ADF80A4016
:100D90004FF6FF70164C039002A9204600F002FEA9
:100DA0000420ADF814000720ADF81C00ADF8165073
:100DB000ADF8186005A9204600F08EFC02231A4603
:100DC0000321204600F06FFC00F053FA0122114687
:100DD000204600F0D7FC0121204600F04FFCE11333
:100DE000204600F0B5FD09B0F0BD0000000C024047
:100DF00000080040F0B589B00121082000F09CFAFD
:100E00000121084600F08CFA264F022200213846C4
:100E100000F09DF802220121384600F098F80320E6
:100E200002258DF804508DF80500002400908DF8FF
:100E3000064001268DF807606946384600F036F80E
:100E4000ADF80840601EADF81040ADF80A40164CF1
:100E5000039002A9204600F0A5FD0420ADF814007F
:100E60000720ADF81C00ADF81650ADF8186005A9C4
:100E7000204600F031FC02231A460321204600F0F0
:100E800012FC00F007FA01221146204600F07AFC1D
:100E90000121204600F0F2FBE113204600F058FD4E
:100EA00009B0F0BD00000240000C0040F0B5002386
:100EB000012403270D6804FA03F21540954242D13C
:100EC000D0F800C05E0007FA06F52CEA050CC0F861
:100ED00000C091F804C0D0F800E00CFA06FC4CEA1F
:100EE0000E0CC0F800C091F804C0BCF1010F02D094
:100EF000BCF1020F1FD1D0F808C02CEA050CC0F8D5
:100F000008C091F805C0D0F808E00CFA06FC4CEADD
:100F10000E0CC0F808C0D0F804C02CEA020CC0F8CF
:100F200004C0426891F806C00CFA03FC1FFA8CFC5E
:100F300042EA0C024260C268AA43C260CA79C5682C
:100F4000B2402A43C2605B1C102BB3D3F0BD4B07E9
:100F5000DB0E9A40C90810B500EB8100016A0F242E
:100F60009C40A1430162016A1143016210BD00006F
:100F70002DE9F0416D4C608BA0F56F41FB3940D0FD
:100F8000A0F53F41FB393ED0A0F5FE41FF393CD0F2
:100F9000A0F55F41FF393AD05A27A0F57F41EF39DC
:100FA00042D0A0F57F416FF05908DF3945D00026C7
:100FB000A0F57F41BF394AD00125A0F57F417F3997
:100FC0004ED0A0F57E41FF3953D0A0F57741FF39CF
:100FD0005BD0A0F57F41FD3960D0A0F57F41FB39A2
:100FE0006DD0A0F57F41FE397ED0A0F56F41DF398D
:100FF00018D1032001F06AFC4DA0BDE8F04101F0DA
:10100000E9BC01F08DFE01F03BFE01F0DDFD0021A9
:10101000032001F05BFC4CA001F0DCFC9FED4F0ACB
:1010200084ED090ABDE8F0810021032001F04EFCA7
:101030004BA001F0CFFC2782F4E70021032001F050
:1010400045FC4CA001F0C6FCA4F81080EAE70021A2
:10105000032001F03BFC4DA001F0BCFC2682E1E73F
:101060000021032001F032FC4DA001F0B3FC2782E7
:1010700008E00021032001F029FC4EA001F0AAFCA9
:10108000A4F81080A5822571CCE70021032001F08F
:101090001DFC4DA001F09EFC2682F3E700210320F9
:1010A00001F014FC4DA001F095FC667126826120D0
:1010B000E071642001F0DAFB7A20E071B2E70021F0
:1010C000032001F003FC4AA001F084FCB4F91400F1
:1010D000F02802DAA08A401CA082B4F91400F0289B
:1010E00001DBF020A08200E00BE0B4F9142045A160
:1010F000474800F007FE0021012001F0E7FB4448CB
:101100007BE70021032001F0E1FB42A001F062FC3B
:10111000B4F91400002802DBA08A401EA082B4F9B2
:1011200014000028DFDCA682DDE7000000000020BC
:101130005550204F5F4B45592052535420434F4D3B
:10114000504153530000000052494748542020208A
:1011500020202020202020202000000000003443F8
:10116000584F415920393020202020202020202095
:1011700020202000584F4159202D39302020202098
:10118000202020202020202020200000476F6320E6
:10119000302020202020202020202020202020005F
:1011A000535155415345202020202020202020202D
:1011B0002020000053454C4543542020202020206F
:1011C0002020202020200000535441525420202071
:1011D00020202020202020202020200052322020EB
:1011E000202020202020202020202020202020001F
:1011F0004C312020202020202020202020202020B2
:10120000202020005350454544203A2025356400D5
:101210003A0100204C3220202020202020202020B5
:101220002020202020202000FEE7FEE7704708B5A0
:101230001C208DF8000004208DF8010000208DF89E
:10124000020001208DF80300684600F035F808BD63
:1012500008B51D208DF8000004208DF80100002045
:101260008DF8020001208DF80300684600F024F894
:1012700008BD08B51E208DF8000004208DF801007F
:1012800000208DF8020001208DF80300684600F070
:1012900013F808BD08B532208DF8000004208DF841
:1012A000010000208DF8020001208DF8030068463F
:1012B00000F002F808BD000030B50F22C4780178B4
:1012C0000123FCB1144C246801F1E02104F4E06432
:1012D000C4F5E064C4F30724C4F10405E240447893
:1012E000AC408578154025432A0181F80024007818
:1012F00000F01F018B404009800000F1E020C0F8A1
:10130000003130BD01F01F0083404809800000F12A
:10131000E020C0F8803130BD0CED00E070470000E7
:10132000044A0029116801D0014300E081431160A3
:101330007047000030380240044A0029116801D08B
:10134000014300E0814311607047000040380240D3
:10135000044A0029116801D0014300E08143116073
:10136000704700004438024070B5204A1168204C94
:1013700011F00C0104D06610042903D0082903D011
:1013800004601BE0066019E01849091F0B68C3F3ED
:1013900080550B6803F03F0315B1B6FBF3F301E092
:1013A000B4FBF3F30C680968C4F388146343C1F316
:1013B0000141491C4900B3FBF1F1016011680F23A1
:1013C00003EA11110B4B5C5C0168E1404160146859
:1013D000072505EA94241C5D21FA04F48460126850
:1013E00005EA52329A5CD140C16070BD08380240B3
:1013F0000024F4001C01002001280AD00B49022817
:101400000AD003280CD04FF08040406AA0F500407D
:10141000704707480068F9E706480068896802E0F5
:1014200005480068496840EA0140EFE708010020EC
:10143000240C0040240800402404004070470000B1
:1014400070B523480168491C0160224CE078401CBB
:10145000C0B2E070042819D91F48204900780880DC
:101460000020E0701E48007801280FD11D48008838
:10147000C2B21D480088C1B21C4803781C48B0F9AC
:1014800000001C4D95ED000AFFF77CF800F0C8FA4B
:10149000A088401C80B2A0801749C82807D94FF601
:1014A000FF700880154908801549088070BD0888BC
:1014B000A0F57F41F539F9D1BFF34F8F114801688D
:1014C000114A01F4E06111430160BFF34F8FFEE761
:1014D00020000020EC000020070000200444004011
:1014E000050000201400002012000020040000204D
:1014F00010000020240000201A000020E600002038
:10150000E80000200CED00E00400FA05124800B5E8
:10151000016841F4700101601048016841F0010167
:1015200001600E4A00210832116002680C4B1A401B
:101530000260031D0B4A1A60026822F480220260D6
:1015400006480C30016000F0DDFF03494FF00060F9
:101550008039086000BD000088ED00E000380240DE
:10156000FFFFF6FE1030002470B5048C24F0010457
:101570000484058B048C4FF6FF7606EA03131343AD
:1015800025F0F3052B4324F00A020A4342F001013F
:101590000383018470BDF0B5048C24F0100404842E
:1015A000078B068C4FF6FF7404EA011527F4734786
:1015B00004EA0331394304EA02220A4326F0A00177
:1015C000294341F0100102830184F0BD4FF08040B7
:1015D0004FF6FE7101820088C1060448016801D5FA
:1015E000491E00E0491C016070470000080100200E
:1015F00007494FF6FE700880054810380088C1067C
:101600000448416801D5491E00E0491C416070470B
:10161000100400400801002007494FF6FE700880C2
:10162000054810380088C1060448816801D5491E64
:1016300000E0491C8160704710080040080100204C
:1016400007494FF6FE700880054810380088C1062B
:101650000448C16801D5491E00E0491CC1607047BB
:10166000100C0040080100200029018802D041F040
:10167000800101E021F0800101807047002901888C
:1016800002D041F0010101E021F001010180704729
:10169000002930F8441F02D041F4004101E0C1F3B9
:1016A0000E010180704770B50589048B068C25F00A
:1016B00007050D434FF6FC410C4040F201110C436D
:1016C0004FF6FF7101EA031126F022061143314360
:1016D00005810483018470BD2DE9F0410D460E881B
:1016E0004988AA882B89044616B3042E28D0082ED0
:1016F000268C4FF6FF702BD026F480562684A78BBD
:10170000268C00EA022200EA013127F473473A43AB
:1017100000EA0330104326F420420A4342F4805189
:10172000A0832184E9882046BDE8F04100F02EB96D
:10173000FFF71AFFE9882046BDE8F04100F00AB93A
:10174000FFF729FFE9882046BDE8F04100F00AB91B
:1017500026F480762684A78B268C00EA012100EAF5
:101760000310104327F0F307384326F420620A439E
:1017700042F48071A0832184E9882046BDE8F041CD
:1017800000F0FCB8002A828901D00A4300E08A43B5
:101790008281704730B5028C22F001020284028CF3
:1017A0008388048B22F0020224F073050C882C43FA
:1017B0008D8915434A882A430C4DA84202D00C4D0E
:1017C000A8420DD122F00805CA8923F440732A43A8
:1017D00022F004058A882A430D8A1D434B8A2B4335
:1017E0008380048389684163028430BD0000014026
:1017F0000004014070B5028C22F010020284028CB9
:101800008488038B0D8823F4E6464FF6FF7303EAC2
:10181000052535438E8922F0200203EA0616164379
:101820004A8803EA02123243104EB04202D0104EF0
:10183000B04215D122F08006CA8924F4406403EA3C
:101840000212324322F040068A8803EA021232432F
:101850000E8A03EA860626434C8A03EA840434434C
:101860008480058389688163028470BD0000014023
:101870000004014070B5028C22F480720284028C54
:101880008488838B0D8823F073031D4322F4007337
:101890008E894FF6FF7202EA06261E434B8802EA43
:1018A00003233343104EB04202D0104EB04215D144
:1018B00023F40066CB8924F4405402EA0323334323
:1018C00023F480668B8802EA032333430E8A02EAFC
:1018D000061626434C8A02EA041434438480858326
:1018E0008968C163038470BD0000014000040140A9
:1018F00070B5028C22F480520284048C8288838B1F
:101900000D8823F4E6464FF6FF7303EA05253543B9
:1019100024F400568C8903EA043434434E8803EAE5
:1019200006362643084CA04202D0084CA04205D1FE
:1019300022F480440A8A03EA821222438280858349
:1019400089680164068470BD000001400004014004
:1019500041627047028B22F00C020283028B0A4321
:1019600002837047028B22F440620283028B4FF69F
:10197000FF7303EA01210A4302837047828B22F03E
:101980000C028283828B0A4382837047828B22F40B
:1019900040628283828B4FF6FF7303EA01210A4380
:1019A0008283704730B50288164B174C98420DD091
:1019B000A0420BD0B0F1804F08D0144DA84205D002
:1019C000134DA84202D0134DA84203D122F0700556
:1019D0004A882A43104DA84206D0104DA84203D091
:1019E00022F440750A892A4302804A68C2620A8842
:1019F0000285984201D0A04201D1897A0186012155
:101A0000818230BD0000014000040140000400401C
:101A100000080040000C004000100040001400408E
:101A200070B53448344A0023B0F90010B2F90040D0
:101A3000324AA14216D01578314E6D1CEDB21570A8
:101A40003678B5420ED91370A14205DD491E09B2A0
:101A50000180A14205DD05E0491C09B20180A142D7
:101A600000DB04802748B0F900102748B0F9005087
:101A7000264CA942247818D055786D1CEDB25570CB
:101A8000A54212D95370002907DA0288521E02803B
:101A9000B0F900208A421FDD70BD05886D1C0580ED
:101AA000B0F900508D4200DB01800029F4D1058897
:101AB000002DF1D095786D1CEDB29570A542EBD953
:101AC0009370B0F90020002A08DA0288521C0280C4
:101AD000B0F90020002ADFDB018070BDB0F90020E2
:101AE000002AFADD0288521E0280B0F90020002A86
:101AF000F2DD70BD080000200E000020EC00002088
:101B0000060000201800002016000020020000201F
:101B100070B51D4D40F225563146284600F063F859
:101B200001282DD11948002404603146284600F0D0
:101B300042F8A888C3B216480370164801780429F1
:101B400018D1164A144915784B556D1CEDB2157015
:101B5000052D0FD904701470114A94800A88114D14
:101B600052BA2A808A88104D52BA2A8049880F4A70
:101B700049BA11800178AA2B03D0042900D004703F
:101B800070BD491C017070BD00100140241400405C
:101B9000DC000020EA00002030010020E4000020EA
:101BA000EC0000201A000020E6000020E8000020E1
:101BB000C943018070470A0A01219140C94301804D
:101BC00070470029818902D041F4005101E021F4DD
:101BD000005181817047002A828A01D00A4300E0C7
:101BE0008A438282704730B501F01F02012400252C
:101BF000C1F3421304FA02F2012B0FD0022B0FD0D3
:101C0000838A4FEA11210088134204FA01F400EAA2
:101C1000040001D000B10125284630BD8389F0E7DA
:101C2000038AEEE710B5C1F3421301F01F0401214E
:101C3000A140012B07D0022B07D01430002A0268E4
:101C400005D00A4304E00C30F8E71030F6E78A4389
:101C5000026010BD7FB50446008A0D4620F4405155
:101C6000E88808432082A08941F20C618843A98852
:101C70002A8911436A8902431143A181A08A20F471
:101C80004071A8890843A0826846FFF76DFB1A4897
:101C9000844202D01948844201D1039800E002989E
:101CA000A189090400EBC00101EB0010296801D5EE
:101CB000490000E08900B0FBF1F26420B2FBF0F1D2
:101CC00009010B096FF018056B4302EB8302A3892E
:101CD0001D044FF0320306D503EBC202B2FBF0F055
:101CE00000F0070005E003EB0212B2FBF0F000F099
:101CF0000F00084320817FBD001001400014014007
:101D0000FEE700000FB4084B10B504A902AA03981F
:101D100000F080F9044602A9002000F01CFB2046D8
:101D200010BC5DF814FB00005723000810EE101AD9
:101D300008B5444A6846B2EB410F28D94FF0E64057
:101D4000B0EB410F94BF00204FF0FF30009000989F
:101D5000002861DB60EE000A10F0010F45D010F0A2
:101D6000020FDFED391A9FED391A00EEE11ADFEDAF
:101D7000381A40EE811A21EEA01AF0EE400A40EE29
:101D8000010A08BFF1EE600AB0EE600A08BD314BEF
:101D900021F0004293423CD911F0004FDFED2E0AB2
:101DA00020EE201ADFED2D0A19BF31EE601A71EE18
:101DB000200A31EE201A71EE600ABDEEE01A11EE33
:101DC000100A9FED271A00F0030000EEC10A9FEDF4
:101DD000251A009000EEC10A9FED231A00EEC10AF9
:101DE0009FED221A00EEC10AB1E79FED211A9FED87
:101DF000210A10F0020F00EE810A9FED1F1A00EE7B
:101E0000801AB7EE000A00EE810A18BFB1EE400A50
:101E100008BD00F03FF89AE710EE100A4000B0F15C
:101E20007F4F3CBFB7EE000A08BD07D14FF001005D
:101E300000F0EAF8BDE8084000F024B8BDE808402A
:101E400000F01CB8B61F927E336D4C39DA82083C24
:101E5000A0AA2ABE490E494683F9223F0000004B42
:101E60000000C93F00A0FD390020A2331A61342CC4
:101E7000B93AB2BACA9F2A3DDDFFFFBE30EE000A72
:101E800070470000DFED020A80EEA00A70470000F4
:101E9000000000002DE9F0014FF07F42B2EB410F4E
:101EA0009FBF4FF0FF310160BDE8F00170474FF078
:101EB000004242EA0123C1F3C752783A551112F0A9
:101EC0001F0C434CCCF120067C44C1F3C752A2F155
:101ED00078024FEA621204EB820254F8254008BFF0
:101EE000D2E9015612D0556804FA0CF425FA06F727
:101EF0003C43976805FA0CF527FA06F8D26807FA0A
:101F00000CFCF24045EA08054CEA0206A4FB034C2F
:101F1000A5FB0352A6FB03631D449D4234BF01266B
:101F200000261319334416B1934202D903E09342B9
:101F300001D2012200E00022624402F1200C92064C
:101F4000DC0C42EA443200EE102A5B03DFED210A8A
:101F5000F8EEC01A00EE103A4FEA9C1C11F0004F48
:101F6000B8EE400AC0F800C020EE201A00EE105A69
:101F7000DFED190AB8EE400A20EE200A71EE810A60
:101F800070EE800A10EE902A02F500626FF30B02E9
:101F900000EE902A70EEE11A31EEC11ADFED101A50
:101FA00030EE411A9FED0D0A20EE800A01EE210A63
:101FB0009FED0C1A00EE810A04BFBDE8F0017047E6
:101FC000CCF180510160BDE8F001B1EE400A7047EC
:101FD00004110000000000360000802C22AAFD2918
:101FE000DB0FC92F0000C92F02E008C8121F08C16B
:101FF000002AFAD170477047002001E001C1121F8A
:10200000002AFBD1704700000149086070470000BA
:102010002C0100202DE9FF4F8BB088460546002695
:1020200006E025280BD0DDE90D1290476D1C761CCB
:1020300028780028F5D10FB03046BDE8F08F002495
:10204000A146A2460122AE4900E0044315F8013F33
:10205000203B02FA03F00842F7D128782A2810D052
:102060006FF02F022878A0F13001092915D809EB6B
:10207000890102EB410144F0020400EB01096D1CEF
:10208000F0E758F8041B5FEA010903D544F4005453
:10209000C9F1000944F002046D1C28782E2817D1DC
:1020A00015F8010F44F004042A280ED06FF02F0217
:1020B0002878A0F1300109290AD80AEB8A0102EB3D
:1020C000410100EB010A6D1CF2E758F804AB6D1CEE
:1020D00028786C280FD006DC4C2817D068280DD043
:1020E0006A2814D104E0742810D07A280FD10DE0AA
:1020F00044F400140AE044F4801401E044F4401471
:102100006978814202D104F580146D1C6D1C287819
:10211000692865D006DC00288DD0632827D0642884
:1021200006D15DE06E2808D073282AD0752877D0B4
:10213000DDE90D129047761CE0E0C4F3025002285E
:1021400009D003280DD0D8F8001004280DD00E6057
:1021500008F10408D2E0D8F80010F217C1E90062D3
:10216000F6E7D8F800100E80F2E70E70F0E718F8E6
:10217000041B8DF8001000208DF80100EB460120B3
:1021800003E058F804BB4FF0FF3061074FF0000741
:1021900001D40AE07F1C57450DDA8742FADB1BF8B1
:1021A00007100029F6D106E07F1C8742FCDB1BF8F4
:1021B00007100029F8D1DDE90D23A9EB07008146BE
:1021C000214600F0B1F83044C61904E0DDE90D12F3
:1021D0001BF8010B90477F1EF8D22146484688E045
:1021E00058F8040BC4F302514FF00A0B032900D135
:1021F00000B2042900D140B2002802DA40422D2169
:1022000002E0210505D52B218DF82410012104E0E1
:1022100006E0E10710D02021F6E708AF089113E0AF
:1022200058F8040BC4F302514FF00A0B032900D1F4
:1022300080B2042900D1C0B20021EEE75946FDF773
:10224000BFFF303107F8011D0028F7D1ADEB0700C3
:1022500000F1200B600702D524F4803401E04FF038
:10226000010ADA4502DDAAEB0B0000E000208246FD
:1022700000EB0B0108980144A9EB01000A90E00370
:1022800006D4DDE90D2321460A9800F04DF80644F6
:102290004FF0000908E009A911F80900DDE90D1265
:1022A000904709F10109761C08998945F3DBE003A1
:1022B0000CD5DDE90D2321460A9800F035F80644D7
:1022C00004E0DDE90D1230209047761CBAF10001E0
:1022D000AAF1010AF5DC05E0DDE90D1217F8010BA2
:1022E0009047761CBBF10001ABF1010BF4DC0A98BE
:1022F0002146DDE90D2300F005F806446D1C97E644
:10230000092801002DE9F041044600251E46174624
:10231000880404D405E039462020B0476D1C641EB3
:10232000F9D52846BDE8F0812DE9F04104460025A5
:102330001E469046C80301D5302700E020278804B8
:1023400004D505E041463846B0476D1C641EF9D5FA
:102350002846BDE8F0810A68531C0B601070704776
:102360002DE9F0478AB001210D20FEF7D9FF4FF08B
:1023700002088DF8188003254FF470608DF819500D
:102380000024DFF86C9105908DF81A4001268DF835
:102390001B6005A94846FEF789FD4FF47070DFF811
:1023A00054A1059005A95046FEF780FD8DF81860F0
:1023B0008DF81950FF278DF81A4005978DF81B608E
:1023C00005A94D48FEF772FD012208214846FEF797
:1023D000BEFD012209214846FEF7B9FD01220A216E
:1023E0004846FEF7B4FD01220B214846FEF7AFFD3B
:1023F000032206215046FEF7AAFD0322072150467C
:10240000FEF7A5FD032208215046FEF7A0FD03229A
:1024100009215046FEF79BFD01210320FEF798FF9E
:102420004FF47A70ADF81C00344DADF82440ADF88F
:102430001E4008978DF8264007A92846FFF7B2FAF4
:10244000DFF8BC9007A94846FFF7ACFA6020ADF86A
:102450000000ADF81040A815ADF80C80ADF81200E2
:10246000ADF80260ADF804400297ADF80E40694641
:102470002846FFF78FF969462846FFF7BBF96946FA
:102480002846FFF7F7F969462846FFF731FA69460B
:102490004846FFF77FF969464846FFF7ABF96946BA
:1024A0004846FFF7E7F969464846FFF721FA012158
:1024B0002846FFF7E3F801214846FFF7DFF801213E
:1024C0002846FFF7E5F801214846FFF7E1F82C64BC
:1024D000EC63AC630A4838300460001F04600848AD
:1024E0003C300460001D04606C630AB0BDE8F087F6
:1024F0000000024000080240000C024000000140C1
:10250000000401400CB500202749019000900A68A2
:1025100042F480320A604FF4A0630A6802F4003289
:102520000092019A521C0192009A12B9019A9A42A1
:10253000F3D10A68920334D5012000901A48403044
:10254000026842F0805202601848026842F48042F9
:1025500002601548083002680260026842F40042D6
:102560000260026842F4A0520260031F104A1A601F
:102570000A6842F080720A600A689201FCD50D4A2E
:1025800040F205611160016821F0030101600168FA
:1025900041F0020101600168C1F381010229FAD111
:1025A0000CBD00900CBD00000038024000700040DF
:1025B00008544007003C024010B54FF4E13000F0F1
:1025C000B9F8022000F004F8BDE8104000F03EB871
:1025D00030B501218FB04805FEF7A2FE4FF0006034
:1025E00017490090019100201649CDE902100221FF
:1025F000CDE904104902CDE906108910CDE90801A2
:102600004FF440310A9104210B910321CDE90C10C4
:102610000D4C0E9069462046FDF78AFF084D0122B9
:102620002D1F40212846FFF7D6FA20212846FFF724
:10263000BFFA01212046FDF741FF0FB030BD000079
:1026400004440040180100208860024008B51020B2
:102650008DF800000D208DF8010000208DF802009B
:1026600001208DF803006846FEF726FE01221021A6
:102670000148FDF747FF08BD88600240F0B50646F7
:1026800087B001210220FEF74BFE4020009002207F
:102690008DF8040001258DF805500024234F8DF896
:1026A00006408DF8074069463846FEF7FFFB80205C
:1026B000009069463846FEF7F9FB01211020FEF72D
:1026C00047FEADF80C40ADF80E40ADF81040ADF847
:1026D00014400C20164CADF81200029602A92046B8
:1026E000FFF7B8FA01212046FFF76BFA072206210F
:1026F0003846FEF72CFC072211463846FEF727FC29
:10270000012240F225512046FFF78CFA25208DF852
:10271000180003208DF819008DF81A008DF81B5051
:1027200006A8FEF7C9FD07B0F0BD00000004024096
:102730000010014070B50546012186B00846FEF73D
:10274000EFFD0420009002208DF8040001208DF898
:1027500005000024194E8DF806408DF807406946A3
:102760003046FEF7A3FB0820009069463046FEF78E
:102770009DFB01214804FEF7DFFDADF80C40ADF8EC
:102780000E40ADF81040ADF814400C200C4CADF8E4
:102790001200029502A92046FFF75CFA01212046AB
:1027A000FFF70FFA072202213046FEF7D0FB07227F
:1027B00003213046FEF7CBFB06B070BD000002409F
:1027C0000044004070B5054686B001210420FEF7A4
:1027D000A7FD1E4E08220A213046FEF7B8FB08224C
:1027E0000B213046FEF7B3FB3015009002208DF828
:1027F000040003208DF8050000248DF806408DF8B4
:10280000074069463046FEF751FBF01400906946D8
:102810003046FEF74BFB0121C804FEF78DFDADF8F5
:102820000C40ADF80E40ADF81040ADF814400C204F
:10283000074CADF81200029502A92046FFF70AFAEC
:1028400001212046FFF7BDF906B070BD0008024027
:10285000004C004000EB80000349400000224A6227
:102860004A6A8242FCD370470010004010B503460C
:102870004FF47A7402E0204600F004F85B1EFAD2AE
:1028800010BD0000034900224A624A6A8242FCD31A
:10289000704700000010004003490A6822F400421B
:1028A0000A6000F0A1B80000140C0240064910B5FF
:1028B0000A6842F400420A6000F096F8BDE8104051
:1028C0001420FFF7C7BF0000140C024010B550B130
:1028D000012804D0022804D0032804D10CE04031A0
:1028E00000E01431C9B241F08000FFF7D5FFBDE828
:1028F00010400A20FFF7AEBF5431F3E710B500F0E7
:102900002FF83320FFF7C8FF4FF4FA742046FFF783
:10291000A1FF3220FFF7C0FF2046FFF79BFF2820D2
:10292000FFF7BAFF2046FFF795FF0120FFF7B4FF3E
:102930002046FFF78FFF0620FFF7AEFF2046FFF788
:1029400089FF0C20FFF7A8FF2046FFF783FF022036
:10295000FFF7A2FF2046BDE81040FFF77BBF000055
:102960001CB501210820FEF7DBFC4FF4004000906D
:1029700001208DF8040003208DF8050000208DF85B
:102980000600134C8DF8070069462046FEF78EFAC4
:102990004FF48040009069462046FEF787FAA01564
:1029A000009069462046FEF781FA6015009069465E
:1029B0002046FEF77BFA2015009069462046FEF778
:1029C00075FAE014009069462046FEF76FFA1CBDC8
:1029D000000C024010B5044602E0641CFFF766FFDD
:1029E00020780028F9D110BD70B5314C054620681B
:1029F00040F4804020602806206802D540F4006042
:102A000001E020F4006020606806206802D540F4F0
:102A1000806001E020F480602060A806206802D574
:102A200040F4007001E020F400702060E8062068A7
:102A300002D540F4807001E020F4807020602068AE
:102A400020F4804020600520FFF704FF206840F458
:102A5000804020602807206802D540F4006001E033
:102A600020F4006020606807206802D540F4806090
:102A700001E020F480602060A807206802D540F4BF
:102A8000007001E020F400702060E807206802D0A8
:102A900040F4807001E020F480702060206820F411
:102AA00080402060BDE870400520FFF7D3BE0000E5
:102AB000140C0240B2B04FF49640FFF7DFFD4FF424
:102AC000E130FFF77FFEFDF769FCFDF7EDFBFFF757
:102AD00047FCFDF701FCFDF735FC2E481E2606617C
:102AE00000F11C010E6100F13802166100F154037F
:102AF0001E610025C560CD60D560DD60FFF75CFD1F
:102B0000FFF7FCFE234C24486C3C4FF47A7125817E
:102B1000A6710068B0FBF1F0B0F1807F39D220F0EF
:102B20007F414FF0E020491E41611C4AF02182F8AC
:102B3000141D8561072101610120FEF75DFC6063C2
:102B40000220FEF759FCE0620320FEF755FCA0626C
:102B50000420FEF751FC2063636BE26A10A1684613
:102B6000FFF7D0F8A36A226B12A119A8FFF7CAF8E1
:102B700000210220FFF7AAFE6846FFF72BFF002185
:102B80000320FFF7A3FE19A8FFF724FFFEF7F0F9D3
:102B9000D2E7FEE76C000020F40000200FE000E028
:102BA00045323D25692045313D25692020202020E2
:102BB0002000000045343D25692045333D2569202E
:102BC00020202020000000000420FDF74DFB052000
:102BD000FFF74CFE264C9FED250A142084ED090AD0
:102BE000A0713226A68201206071002525826582AF
:102BF000257141F2707702E00520FFF737FE0420CF
:102C0000FEF7FAFBB842F7DB9620A0820A20A071FB
:102C10004CF2503702E00520FFF728FE0420FEF7B3
:102C2000EBFBB842F7DBA6820520A0714FF47A4790
:102C300002E00520FFF71AFE0420FEF7DDFBB84294
:102C4000F7DB9FED0C0A84ED090AA6820F20A07124
:102C500041F28830FFF70AFE0748657102210160E2
:102C600006488163C1630164FEE700000000A442DE
:102C70000000002000000000380401400000014076
:102C800086B00420FDF7F0FA0520FFF7EFFD1F4C9A
:102C9000B0EE000A142084ED090AA0713220A0824F
:102CA00001206071002525826582257140F6B836C5
:102CB00002E00520FFF7DAFD0220FEF79DFBB0429F
:102CC000F7DBB4202082052060824FF47A60FFF7A2
:102CD000CDFD0F486571022101600E488163C1631B
:102CE00001640120FEF788FB2063226B0AA168467D
:102CF000FFF708F800210320FFF7E8FD6846FFF71B
:102D000069FE0A20FFF7B2FDEBE70000000000209B
:102D1000380401400000014045343D256920000091
:102D20002DED048B88B00120FDF79EFA0520FFF7FA
:102D30009DFD9FED8E8A8E4C052084ED098AA07141
:102D40001E20A082012060710026268266822671E4
:102D5000884D02E00520FFF789FD0120FEF74CFBBE
:102D6000A842F7DC4FF03208A4F81480824D02E04C
:102D70000520FFF77BFD0120FEF73EFBA842F7DCB4
:102D80004FF0020984F806901425A5827B4F02E0DB
:102D90000520FFF76BFD0120FEF72EFBB842F7DCA4
:102DA000DFED778AC4ED098AA582764F02E005201F
:102DB000FFF75CFD0120FEF71FFBB842F7DC0120A6
:102DC000FDF752FA0120FFF751FD9FED6F9A84ED58
:102DD000099AA5826D4F02E00520FFF747FD01200B
:102DE000FEF70AFBB842F7DC6420A082684F02E0DD
:102DF0000520FFF73BFD0120FEF7FEFAB842F7DCA5
:102E0000A582644F02E00520FFF730FD0120FEF7A8
:102E1000F3FAB842F7DC0120FDF726FA0120FFF7AC
:102E200025FD84ED098AA582584FD03F02E0052098
:102E3000FFF71CFD0120FEF7DFFAB842F7DC502750
:102E4000A782DFF854A102E00520FFF70FFD012063
:102E5000FEF7D2FA5045F7DCA582DFF840A102E088
:102E60000520FFF703FD0120FEF7C6FA5045F7DC09
:102E70000120FDF7F9F90120FFF7F8FC84ED099A2C
:102E8000DFF81CA102E00520FFF7F0FC0120FEF7AF
:102E9000B3FA5045F7DC0120FDF7E6F90120FFF712
:102EA000E5FCC4ED098AA4F81480DFF8F88002E09C
:102EB0000520FFF7DBFC0120FEF79EFA4045F7DC1A
:102EC000A582DFF8E48002E00520FFF7CFFC0120B7
:102ED000FEF792FA4045F7DC0220FDF7C5F9012024
:102EE000FFF7C4FC9FED310A84ED090AA582DFF8E3
:102EF000C08002E00520FFF7B9FC0220FEF77CFA53
:102F00004045F7DCA7822B4F02E00520FFF7AEFC1F
:102F10000220FEF771FAB842F7DCA582264D02E0E6
:102F20000520FFF7A3FC0220FEF766FAA842F7DCB3
:102F300022486671C0F800902148C0F83890C0F867
:102F40003C90C0F840900120FEF756FA02461DA1C1
:102F50006846FEF7D7FE00210220FFF7B7FC68465F
:102F6000FFF738FD3220FFF781FCECE70000344228
:102F700000000020E0FCFFFF58E9FFFFE4DAFFFF5C
:102F80000000B44220D1FFFF000007432CFAFFFFEE
:102F9000D4DEFFFF34CFFFFFC0E0FFFF08D5FFFF07
:102FA0004AE3FFFF28A6FFFF8896FFFF000000000E
:102FB00078ECFFFFE0B1FFFFD08AFFFF380401404B
:102FC0000000014045313D2569202020000000001F
:102FD000000000006E83F9A22915444ED15727FC4A
:102FE000C0DD34F5999562DB4190433CAB6351FE03
:102FF000103000080000002030010000100200081E
:10300000343000083001002070040000F81F000870
:1030100011820179090169091A7209521C917C7A9D
:10302000030A30080817020304060708095019208C
:04303000A9240000CF
:040000050800018965
:00000001FF
